{
  "abi": [
    {
      "inputs": [
        {
          "internalType": "uint256",
          "name": "_ethAmount",
          "type": "uint256"
        },
        {
          "internalType": "contract AggregatorV3Interface",
          "name": "priceFeed",
          "type": "AggregatorV3Interface"
        }
      ],
      "name": "getConvRate",
      "outputs": [
        {
          "internalType": "uint256",
          "name": "",
          "type": "uint256"
        }
      ],
      "stateMutability": "view",
      "type": "function"
    },
    {
      "inputs": [
        {
          "internalType": "contract AggregatorV3Interface",
          "name": "priceFeed",
          "type": "AggregatorV3Interface"
        }
      ],
      "name": "getPrice",
      "outputs": [
        {
          "internalType": "uint256",
          "name": "",
          "type": "uint256"
        }
      ],
      "stateMutability": "view",
      "type": "function"
    },
    {
      "inputs": [],
      "name": "getVersion",
      "outputs": [
        {
          "internalType": "uint256",
          "name": "",
          "type": "uint256"
        }
      ],
      "stateMutability": "view",
      "type": "function"
    }
  ],
  "bytecode": {
    "object": "0x61036361003a600b82828239805160001a60731461002d57634e487b7160e01b600052600060045260246000fd5b30600052607381538281f3fe730000000000000000000000000000000000000000301460806040526004361061004b5760003560e01c80630d8e6e2c14610050578063b81c83291461006a578063ce639ce31461007d575b600080fd5b610058610090565b60405190815260200160405180910390f35b6100586100783660046101e4565b61010d565b61005861008b366004610210565b610145565b600073694aa1769357215de4fac081bf1f309adc3253066001600160a01b03166354fd4d506040518163ffffffff1660e01b8152600401602060405180830381865afa1580156100e4573d6000803e3d6000fd5b505050506040513d601f19601f82011682018060405250810190610108919061022b565b905090565b60008061011983610145565b90506000670de0b6b3a7640000610130868461025a565b61013a9190610271565b925050505b92915050565b600080826001600160a01b031663feaf968c6040518163ffffffff1660e01b815260040160a060405180830381865afa158015610186573d6000803e3d6000fd5b505050506040513d601f19601f820116820180604052508101906101aa91906102ad565b505050915050806402540be4006101c191906102fd565b9392505050565b80356001600160a01b03811681146101df57600080fd5b919050565b600080604083850312156101f757600080fd5b82359150610207602084016101c8565b90509250929050565b60006020828403121561022257600080fd5b6101c1826101c8565b60006020828403121561023d57600080fd5b5051919050565b634e487b7160e01b600052601160045260246000fd5b808202811582820484141761013f5761013f610244565b60008261028e57634e487b7160e01b600052601260045260246000fd5b500490565b805169ffffffffffffffffffff811681146101df57600080fd5b600080600080600060a086880312156102c557600080fd5b6102ce86610293565b94506020860151935060408601519250606086015191506102f160808701610293565b90509295509295909350565b80820260008212600160ff1b8414161561031957610319610244565b818105831482151761013f5761013f61024456fea2646970667358221220d4140b37a313e50ebbcb326345db352d9961f40675c3cd2888e4760726a1401464736f6c63430008150033",
    "linkReferences": {}
  },
  "methodIdentifiers": {
    "getConvRate(uint256,AggregatorV3Interface)": "b81c8329",
    "getPrice(AggregatorV3Interface)": "ce639ce3",
    "getVersion()": "0d8e6e2c"
  },
  "id": 22
}