{
  "abi": [
    {
      "inputs": [
        {
          "internalType": "address",
          "name": "priceFeed",
          "type": "address"
        }
      ],
      "stateMutability": "nonpayable",
      "type": "constructor"
    },
    {
      "inputs": [],
      "name": "CallFailed",
      "type": "error"
    },
    {
      "inputs": [],
      "name": "InsufficientFunds",
      "type": "error"
    },
    {
      "inputs": [],
      "name": "fundme__NotOwner",
      "type": "error"
    },
    {
      "stateMutability": "payable",
      "type": "fallback"
    },
    {
      "inputs": [],
      "name": "MIN_USD",
      "outputs": [
        {
          "internalType": "uint256",
          "name": "",
          "type": "uint256"
        }
      ],
      "stateMutability": "view",
      "type": "function"
    },
    {
      "inputs": [],
      "name": "fund",
      "outputs": [],
      "stateMutability": "payable",
      "type": "function"
    },
    {
      "inputs": [
        {
          "internalType": "address",
          "name": "funder",
          "type": "address"
        }
      ],
      "name": "getAddressToFunds",
      "outputs": [
        {
          "internalType": "uint256",
          "name": "",
          "type": "uint256"
        }
      ],
      "stateMutability": "view",
      "type": "function"
    },
    {
      "inputs": [
        {
          "internalType": "uint256",
          "name": "index",
          "type": "uint256"
        }
      ],
      "name": "getFunder",
      "outputs": [
        {
          "internalType": "address",
          "name": "",
          "type": "address"
        }
      ],
      "stateMutability": "view",
      "type": "function"
    },
    {
      "inputs": [],
      "name": "getOwner",
      "outputs": [
        {
          "internalType": "address",
          "name": "",
          "type": "address"
        }
      ],
      "stateMutability": "view",
      "type": "function"
    },
    {
      "inputs": [],
      "name": "getVersion",
      "outputs": [
        {
          "internalType": "uint256",
          "name": "",
          "type": "uint256"
        }
      ],
      "stateMutability": "view",
      "type": "function"
    },
    {
      "inputs": [],
      "name": "withdraw",
      "outputs": [],
      "stateMutability": "nonpayable",
      "type": "function"
    },
    {
      "stateMutability": "payable",
      "type": "receive"
    }
  ],
  "bytecode": {
    "object": "0x60a060405234801561001057600080fd5b5060405161068038038061068083398101604081905261002f91610058565b33608052600280546001600160a01b0319166001600160a01b0392909216919091179055610088565b60006020828403121561006a57600080fd5b81516001600160a01b038116811461008157600080fd5b9392505050565b6080516105d66100aa60003960008181610129015261031001526105d66000f3fe6080604052600436106100745760003560e01c80633ccfd60b1161004e5780633ccfd60b14610105578063893d20e81461011a578063b60d428814610083578063d7b4750c1461016157610083565b80630d8e6e2c1461008b578063213dbea2146100b357806334190e93146100cf57610083565b3661008357610081610181565b005b610081610181565b34801561009757600080fd5b506100a0610292565b6040519081526020015b60405180910390f35b3480156100bf57600080fd5b506100a0674563918244f4000081565b3480156100db57600080fd5b506100a06100ea3660046104e0565b6001600160a01b031660009081526001602052604090205490565b34801561011157600080fd5b50610081610305565b34801561012657600080fd5b507f00000000000000000000000000000000000000000000000000000000000000005b6040516001600160a01b0390911681526020016100aa565b34801561016d57600080fd5b5061014961017c366004610510565b610437565b60025460405163b81c832960e01b81523460048201526001600160a01b039091166024820152674563918244f400009073__$0bd5e3e2aad1ddede782f0432e4e9733dc$__9063b81c832990604401602060405180830381865af41580156101ed573d6000803e3d6000fd5b505050506040513d601f19601f820116820180604052508101906102119190610529565b10156102305760405163356680b760e01b815260040160405180910390fd5b60008054600181810183557f290decd9548b62a8d60345a988386fc84ba6bc95484008f6362f93160ef3e56390910180546001600160a01b03191633908117909155825260205260408120805434929061028b908490610558565b9091555050565b6002546040805163054fd4d560e41b815290516000926001600160a01b0316916354fd4d509160048083019260209291908290030181865afa1580156102dc573d6000803e3d6000fd5b505050506040513d601f19601f820116820180604052508101906103009190610529565b905090565b336001600160a01b037f0000000000000000000000000000000000000000000000000000000000000000161461034e576040516355c3557b60e11b815260040160405180910390fd5b60008054905b818110156103ab5760006001600080848154811061037457610374610571565b60009182526020808320909101546001600160a01b03168352820192909252604001902055806103a381610587565b915050610354565b50604080516000808252602082019283905290516103c99290610466565b50604051600090339047908381818185875af1925050503d806000811461040c576040519150601f19603f3d011682016040523d82523d6000602084013e610411565b606091505b505090508061043357604051633204506f60e01b815260040160405180910390fd5b5050565b600080828154811061044b5761044b610571565b6000918252602090912001546001600160a01b031692915050565b8280548282559060005260206000209081019282156104bb579160200282015b828111156104bb57825182546001600160a01b0319166001600160a01b03909116178255602090920191600190910190610486565b506104c79291506104cb565b5090565b5b808211156104c757600081556001016104cc565b6000602082840312156104f257600080fd5b81356001600160a01b038116811461050957600080fd5b9392505050565b60006020828403121561052257600080fd5b5035919050565b60006020828403121561053b57600080fd5b5051919050565b634e487b7160e01b600052601160045260246000fd5b8082018082111561056b5761056b610542565b92915050565b634e487b7160e01b600052603260045260246000fd5b60006001820161059957610599610542565b506001019056fea26469706673582212205ff216cacb4a9f59a34759fa706757bbbb0b4b2e7209039daff70ee36424fd4164736f6c63430008150033",
    "linkReferences": {
      "src/PriceConv.sol": {
        "PriceConv": [
          {
            "start": 605,
            "length": 20
          }
        ]
      }
    }
  },
  "methodIdentifiers": {
    "MIN_USD()": "213dbea2",
    "fund()": "b60d4288",
    "getAddressToFunds(address)": "34190e93",
    "getFunder(uint256)": "d7b4750c",
    "getOwner()": "893d20e8",
    "getVersion()": "0d8e6e2c",
    "withdraw()": "3ccfd60b"
  },
  "id": 22
}